:030000000208DC17
:0C08DC00787FE4F6D8FD75810C0208005E
:0D08CF0059616E67206C65692078696E00C4
:06088F00D2A37F057E00EC
:10089500EF4E6014E4FDFC0DBD00010CEDF44C7051
:0808A500F6EF1F70EB1E80E866
:0108AD002228
:0F08C000C2A2C2A18F9012089112088FC2A32268
:1008AE00D2A2C2A18F9012088FC2A37F057E000232
:0208BE0008959B
:060864008B088A09890AD5
:10086A00E4F50BF50CAB08AA09A90A850C82850BDD
:10087A0083120837FF600D1208AE050CE50C70E50F
:04088A00050B80E1F9
:01088E002247
:10080000C2A1C2A27F361208C07F0F1208C07F3873
:100810001208C07F0C1208C07F061208C07F0112A8
:1008200008C07F801208C07FC01208C07BFF7A0812
:0708300079CF12086480FE7D
:10083700BB010CE58229F582E5833AF583E0225076
:1008470006E92582F8E622BBFE06E92582F8E222C0
:0D085700E58229F582E5833AF583E49322DA
:00000001FF
